{
  "_format": "hh-sol-artifact-1",
  "contractName": "Remittance",
  "sourceName": "contracts/Remittance.sol",
  "abi": [
    {
      "inputs": [
        {
          "internalType": "address",
          "name": "_owner",
          "type": "address"
        }
      ],
      "stateMutability": "nonpayable",
      "type": "constructor"
    },
    {
      "anonymous": false,
      "inputs": [
        {
          "indexed": false,
          "internalType": "uint256",
          "name": "oldFee",
          "type": "uint256"
        },
        {
          "indexed": false,
          "internalType": "uint256",
          "name": "newFee",
          "type": "uint256"
        },
        {
          "indexed": false,
          "internalType": "uint256",
          "name": "timestamp",
          "type": "uint256"
        }
      ],
      "name": "ConversionFeeUpdated",
      "type": "event"
    },
    {
      "anonymous": false,
      "inputs": [
        {
          "indexed": false,
          "internalType": "address",
          "name": "fromToken",
          "type": "address"
        },
        {
          "indexed": false,
          "internalType": "address",
          "name": "toToken",
          "type": "address"
        },
        {
          "indexed": false,
          "internalType": "uint256",
          "name": "rate",
          "type": "uint256"
        },
        {
          "indexed": false,
          "internalType": "uint256",
          "name": "timestamp",
          "type": "uint256"
        }
      ],
      "name": "ExchangeRateUpdated",
      "type": "event"
    },
    {
      "anonymous": false,
      "inputs": [
        {
          "indexed": false,
          "internalType": "address",
          "name": "token",
          "type": "address"
        },
        {
          "indexed": false,
          "internalType": "uint256",
          "name": "amount",
          "type": "uint256"
        },
        {
          "indexed": false,
          "internalType": "uint256",
          "name": "timestamp",
          "type": "uint256"
        }
      ],
      "name": "FeesCollected",
      "type": "event"
    },
    {
      "anonymous": false,
      "inputs": [
        {
          "indexed": false,
          "internalType": "address",
          "name": "token",
          "type": "address"
        },
        {
          "indexed": false,
          "internalType": "uint256",
          "name": "amount",
          "type": "uint256"
        },
        {
          "indexed": false,
          "internalType": "uint256",
          "name": "timestamp",
          "type": "uint256"
        }
      ],
      "name": "LiquidityAdded",
      "type": "event"
    },
    {
      "anonymous": false,
      "inputs": [
        {
          "indexed": false,
          "internalType": "address",
          "name": "token",
          "type": "address"
        },
        {
          "indexed": false,
          "internalType": "uint256",
          "name": "amount",
          "type": "uint256"
        },
        {
          "indexed": false,
          "internalType": "uint256",
          "name": "timestamp",
          "type": "uint256"
        }
      ],
      "name": "LiquidityRemoved",
      "type": "event"
    },
    {
      "anonymous": false,
      "inputs": [
        {
          "indexed": true,
          "internalType": "address",
          "name": "user",
          "type": "address"
        },
        {
          "indexed": false,
          "internalType": "address",
          "name": "token",
          "type": "address"
        },
        {
          "indexed": false,
          "internalType": "uint256",
          "name": "amount",
          "type": "uint256"
        },
        {
          "indexed": false,
          "internalType": "uint256",
          "name": "timestamp",
          "type": "uint256"
        }
      ],
      "name": "RemittanceWithdrawn",
      "type": "event"
    },
    {
      "anonymous": false,
      "inputs": [
        {
          "indexed": false,
          "internalType": "string",
          "name": "countryCode",
          "type": "string"
        },
        {
          "indexed": false,
          "internalType": "address",
          "name": "stablecoin",
          "type": "address"
        },
        {
          "indexed": false,
          "internalType": "uint256",
          "name": "timestamp",
          "type": "uint256"
        }
      ],
      "name": "StablecoinAssigned",
      "type": "event"
    },
    {
      "anonymous": false,
      "inputs": [
        {
          "indexed": true,
          "internalType": "address",
          "name": "from",
          "type": "address"
        },
        {
          "indexed": true,
          "internalType": "address",
          "name": "to",
          "type": "address"
        },
        {
          "indexed": false,
          "internalType": "string",
          "name": "fromCountry",
          "type": "string"
        },
        {
          "indexed": false,
          "internalType": "string",
          "name": "toCountry",
          "type": "string"
        },
        {
          "indexed": false,
          "internalType": "uint256",
          "name": "sentAmount",
          "type": "uint256"
        },
        {
          "indexed": false,
          "internalType": "uint256",
          "name": "convertedAmount",
          "type": "uint256"
        },
        {
          "indexed": false,
          "internalType": "uint256",
          "name": "fee",
          "type": "uint256"
        },
        {
          "indexed": false,
          "internalType": "bytes32",
          "name": "referenceId",
          "type": "bytes32"
        },
        {
          "indexed": false,
          "internalType": "uint256",
          "name": "timestamp",
          "type": "uint256"
        }
      ],
      "name": "TransferCompleted",
      "type": "event"
    },
    {
      "inputs": [
        {
          "internalType": "address",
          "name": "token",
          "type": "address"
        },
        {
          "internalType": "uint256",
          "name": "amount",
          "type": "uint256"
        }
      ],
      "name": "addLiquidity",
      "outputs": [],
      "stateMutability": "nonpayable",
      "type": "function"
    },
    {
      "inputs": [
        {
          "internalType": "address",
          "name": "token",
          "type": "address"
        }
      ],
      "name": "collectFees",
      "outputs": [],
      "stateMutability": "nonpayable",
      "type": "function"
    },
    {
      "inputs": [
        {
          "internalType": "address",
          "name": "",
          "type": "address"
        }
      ],
      "name": "collectedFees",
      "outputs": [
        {
          "internalType": "uint256",
          "name": "",
          "type": "uint256"
        }
      ],
      "stateMutability": "view",
      "type": "function"
    },
    {
      "inputs": [],
      "name": "conversionFee",
      "outputs": [
        {
          "internalType": "uint256",
          "name": "",
          "type": "uint256"
        }
      ],
      "stateMutability": "view",
      "type": "function"
    },
    {
      "inputs": [
        {
          "internalType": "string",
          "name": "",
          "type": "string"
        }
      ],
      "name": "countryStablecoins",
      "outputs": [
        {
          "internalType": "address",
          "name": "",
          "type": "address"
        }
      ],
      "stateMutability": "view",
      "type": "function"
    },
    {
      "inputs": [
        {
          "internalType": "address",
          "name": "token",
          "type": "address"
        },
        {
          "internalType": "uint256",
          "name": "amount",
          "type": "uint256"
        }
      ],
      "name": "emergencyWithdraw",
      "outputs": [],
      "stateMutability": "nonpayable",
      "type": "function"
    },
    {
      "inputs": [
        {
          "internalType": "address",
          "name": "",
          "type": "address"
        },
        {
          "internalType": "address",
          "name": "",
          "type": "address"
        }
      ],
      "name": "exchangeRates",
      "outputs": [
        {
          "internalType": "uint256",
          "name": "",
          "type": "uint256"
        }
      ],
      "stateMutability": "view",
      "type": "function"
    },
    {
      "inputs": [
        {
          "internalType": "address",
          "name": "token",
          "type": "address"
        }
      ],
      "name": "getCollectedFees",
      "outputs": [
        {
          "internalType": "uint256",
          "name": "",
          "type": "uint256"
        }
      ],
      "stateMutability": "view",
      "type": "function"
    },
    {
      "inputs": [
        {
          "internalType": "address",
          "name": "fromToken",
          "type": "address"
        },
        {
          "internalType": "address",
          "name": "toToken",
          "type": "address"
        }
      ],
      "name": "getExchangeRate",
      "outputs": [
        {
          "internalType": "uint256",
          "name": "",
          "type": "uint256"
        }
      ],
      "stateMutability": "view",
      "type": "function"
    },
    {
      "inputs": [
        {
          "internalType": "address",
          "name": "token",
          "type": "address"
        }
      ],
      "name": "getLiquidityBalance",
      "outputs": [
        {
          "internalType": "uint256",
          "name": "",
          "type": "uint256"
        }
      ],
      "stateMutability": "view",
      "type": "function"
    },
    {
      "inputs": [
        {
          "internalType": "address",
          "name": "user",
          "type": "address"
        },
        {
          "internalType": "address",
          "name": "token",
          "type": "address"
        }
      ],
      "name": "getPendingWithdrawal",
      "outputs": [
        {
          "internalType": "uint256",
          "name": "",
          "type": "uint256"
        }
      ],
      "stateMutability": "view",
      "type": "function"
    },
    {
      "inputs": [
        {
          "internalType": "string",
          "name": "countryCode",
          "type": "string"
        }
      ],
      "name": "getStablecoinForCountry",
      "outputs": [
        {
          "internalType": "address",
          "name": "",
          "type": "address"
        }
      ],
      "stateMutability": "view",
      "type": "function"
    },
    {
      "inputs": [
        {
          "internalType": "address",
          "name": "",
          "type": "address"
        }
      ],
      "name": "liquidityPools",
      "outputs": [
        {
          "internalType": "uint256",
          "name": "",
          "type": "uint256"
        }
      ],
      "stateMutability": "view",
      "type": "function"
    },
    {
      "inputs": [],
      "name": "owner",
      "outputs": [
        {
          "internalType": "address",
          "name": "",
          "type": "address"
        }
      ],
      "stateMutability": "view",
      "type": "function"
    },
    {
      "inputs": [],
      "name": "paused",
      "outputs": [
        {
          "internalType": "bool",
          "name": "",
          "type": "bool"
        }
      ],
      "stateMutability": "view",
      "type": "function"
    },
    {
      "inputs": [
        {
          "internalType": "address",
          "name": "",
          "type": "address"
        },
        {
          "internalType": "address",
          "name": "",
          "type": "address"
        }
      ],
      "name": "pendingWithdrawals",
      "outputs": [
        {
          "internalType": "uint256",
          "name": "",
          "type": "uint256"
        }
      ],
      "stateMutability": "view",
      "type": "function"
    },
    {
      "inputs": [
        {
          "internalType": "address",
          "name": "token",
          "type": "address"
        },
        {
          "internalType": "uint256",
          "name": "amount",
          "type": "uint256"
        }
      ],
      "name": "removeLiquidity",
      "outputs": [],
      "stateMutability": "nonpayable",
      "type": "function"
    },
    {
      "inputs": [
        {
          "internalType": "string",
          "name": "fromCountry",
          "type": "string"
        },
        {
          "internalType": "string",
          "name": "toCountry",
          "type": "string"
        },
        {
          "internalType": "address",
          "name": "to",
          "type": "address"
        },
        {
          "internalType": "uint256",
          "name": "amount",
          "type": "uint256"
        },
        {
          "internalType": "bytes32",
          "name": "referenceId",
          "type": "bytes32"
        }
      ],
      "name": "sendRemittance",
      "outputs": [],
      "stateMutability": "nonpayable",
      "type": "function"
    },
    {
      "inputs": [
        {
          "internalType": "uint256",
          "name": "_fee",
          "type": "uint256"
        }
      ],
      "name": "setConversionFee",
      "outputs": [],
      "stateMutability": "nonpayable",
      "type": "function"
    },
    {
      "inputs": [
        {
          "internalType": "address",
          "name": "fromToken",
          "type": "address"
        },
        {
          "internalType": "address",
          "name": "toToken",
          "type": "address"
        },
        {
          "internalType": "uint256",
          "name": "rate",
          "type": "uint256"
        }
      ],
      "name": "setExchangeRate",
      "outputs": [],
      "stateMutability": "nonpayable",
      "type": "function"
    },
    {
      "inputs": [
        {
          "internalType": "bool",
          "name": "_paused",
          "type": "bool"
        }
      ],
      "name": "setPaused",
      "outputs": [],
      "stateMutability": "nonpayable",
      "type": "function"
    },
    {
      "inputs": [
        {
          "internalType": "string",
          "name": "countryCode",
          "type": "string"
        },
        {
          "internalType": "address",
          "name": "tokenAddress",
          "type": "address"
        }
      ],
      "name": "setStablecoinForCountry",
      "outputs": [],
      "stateMutability": "nonpayable",
      "type": "function"
    },
    {
      "inputs": [
        {
          "internalType": "address",
          "name": "newOwner",
          "type": "address"
        }
      ],
      "name": "transferOwnership",
      "outputs": [],
      "stateMutability": "nonpayable",
      "type": "function"
    },
    {
      "inputs": [
        {
          "internalType": "address",
          "name": "token",
          "type": "address"
        },
        {
          "internalType": "uint256",
          "name": "amount",
          "type": "uint256"
        }
      ],
      "name": "withdrawRemittance",
      "outputs": [],
      "stateMutability": "nonpayable",
      "type": "function"
    }
  ],
  "bytecode": "0x608060405260326004556007805460ff1916905534801561001f57600080fd5b506040516200212038038062002120833981016040819052610040916100af565b6001600160a01b03811661008a5760405162461bcd60e51b815260206004820152600d60248201526c24b73b30b634b21037bbb732b960991b604482015260640160405180910390fd5b600080546001600160a01b0319166001600160a01b03929092169190911790556100df565b6000602082840312156100c157600080fd5b81516001600160a01b03811681146100d857600080fd5b9392505050565b61203180620000ef6000396000f3fe608060405234801561001057600080fd5b50600436106101585760003560e01c80638f02a3c2116100c3578063ae0495fc1161007c578063ae0495fc1461035f578063b23a0ad814610372578063baaa61be14610385578063c88b7c8e146103be578063e831be58146103d1578063f2fde38b146103fc57600080fd5b80638f02a3c2146102b657806395ccea67146102ea578063a0fb32ce146102fd578063a201ccf614610310578063a3daed9914610323578063a480ca791461034c57600080fd5b8063579cd3ca11610115578063579cd3ca146102165780635c975abb1461021f578063782aaeea1461023c57806388154b081461024f5780638da5cb5b1461027a5780638e930b3e1461028d57600080fd5b80630b0fd47e1461015d57806316c38b3c146101905780631cead9a7146101a5578063503fa44f146101c557806356688700146101f05780635699c7b114610203575b600080fd5b61017d61016b3660046119df565b60026020526000908152604090205481565b6040519081526020015b60405180910390f35b6101a361019e366004611a12565b61040f565b005b61017d6101b33660046119df565b60056020526000908152604090205481565b61017d6101d3366004611a2f565b600360209081526000928352604080842090915290825290205481565b6101a36101fe366004611a62565b610455565b61017d610211366004611a2f565b6105ee565b61017d60045481565b60075461022c9060ff1681565b6040519015158152602001610187565b6101a361024a366004611a8c565b61061b565b61026261025d366004611b6b565b6107b3565b6040516001600160a01b039091168152602001610187565b600054610262906001600160a01b031681565b61017d61029b3660046119df565b6001600160a01b031660009081526002602052604090205490565b6102626102c4366004611b6b565b80516020818301810180516001825292820191909301209152546001600160a01b031681565b6101a36102f8366004611a62565b6107e4565b6101a361030b366004611ba8565b6109e3565b6101a361031e366004611a62565b610b1f565b61017d6103313660046119df565b6001600160a01b031660009081526005602052604090205490565b6101a361035a3660046119df565b610cd6565b6101a361036d366004611bed565b610e5b565b6101a3610380366004611a62565b6115ea565b61017d610393366004611a2f565b6001600160a01b03918216600090815260036020908152604080832093909416825291909152205490565b6101a36103cc366004611c73565b611826565b61017d6103df366004611a2f565b600660209081526000928352604080842090915290825290205481565b6101a361040a3660046119df565b6118e3565b6000546001600160a01b031633146104425760405162461bcd60e51b815260040161043990611c8c565b60405180910390fd5b6007805460ff1916911515919091179055565b6000546001600160a01b0316331461047f5760405162461bcd60e51b815260040161043990611c8c565b6001600160a01b0382166104a55760405162461bcd60e51b815260040161043990611cc3565b600081116104c55760405162461bcd60e51b815260040161043990611cea565b6040516323b872dd60e01b8152336004820152306024820152604481018290526000906001600160a01b038416906323b872dd906064016020604051808303816000875af115801561051b573d6000803e3d6000fd5b505050506040513d601f19601f8201168201806040525081019061053f9190611d16565b9050806105805760405162461bcd60e51b815260206004820152600f60248201526e151c985b9cd9995c8819985a5b1959608a1b6044820152606401610439565b6001600160a01b038316600090815260026020526040812080548492906105a8908490611d49565b90915550506040517fac1d76749e5447b7b16f5ab61447e1bd502f3bb4807af3b28e620d1700a6ee45906105e190859085904290611d5c565b60405180910390a1505050565b6001600160a01b038083166000908152600660209081526040808320938516835292905220545b92915050565b6000546001600160a01b031633146106455760405162461bcd60e51b815260040161043990611c8c565b6001600160a01b0383161580159061066557506001600160a01b03821615155b6106a25760405162461bcd60e51b815260206004820152600e60248201526d496e76616c696420746f6b656e7360901b6044820152606401610439565b816001600160a01b0316836001600160a01b0316036107035760405162461bcd60e51b815260206004820152601e60248201527f43616e6e6f7420736574207261746520666f722073616d6520746f6b656e00006044820152606401610439565b600081116107465760405162461bcd60e51b815260206004820152601060248201526f052617465206d757374206265203e20360841b6044820152606401610439565b6001600160a01b0383811660008181526003602090815260408083209487168084529482529182902085905581519283528201929092529081018290524260608201527f71914933b46ae29d743cacf1b94e794e01834b19e06725b10736a7a44cbc87b7906080016105e1565b60006001826040516107c59190611da1565b908152604051908190036020019020546001600160a01b031692915050565b6000546001600160a01b0316331461080e5760405162461bcd60e51b815260040161043990611c8c565b6001600160a01b0382166108345760405162461bcd60e51b815260040161043990611cc3565b600081116108545760405162461bcd60e51b815260040161043990611cea565b6001600160a01b0382166000908152600260205260409020548111156108bc5760405162461bcd60e51b815260206004820152601960248201527f496e73756666696369656e7420706f6f6c2062616c616e6365000000000000006044820152606401610439565b6001600160a01b038216600090815260026020526040812080548392906108e4908490611dbd565b90915550506000805460405163a9059cbb60e01b81526001600160a01b039182166004820152602481018490529084169063a9059cbb906044016020604051808303816000875af115801561093d573d6000803e3d6000fd5b505050506040513d601f19601f820116820180604052508101906109619190611d16565b9050806109b05760405162461bcd60e51b815260206004820152601b60248201527f456d657267656e6379207769746864726177616c206661696c656400000000006044820152606401610439565b7f96cd817c6329656790ef8fba7675405193677d39619571282f5e21f3a98cd0598383426040516105e193929190611d5c565b6000546001600160a01b03163314610a0d5760405162461bcd60e51b815260040161043990611c8c565b6001600160a01b038116610a5b5760405162461bcd60e51b8152602060048201526015602482015274496e76616c696420746f6b656e206164647265737360581b6044820152606401610439565b6000825111610aa15760405162461bcd60e51b8152602060048201526012602482015271456d70747920636f756e74727920636f646560701b6044820152606401610439565b80600183604051610ab29190611da1565b90815260405190819003602001812080546001600160a01b03939093166001600160a01b0319909316929092179091557f971672ea31c595f485011d6dfff7a7ab239962b4638f7a56118ad669d9de2c5590610b1390849084904290611dfc565b60405180910390a15050565b6000546001600160a01b03163314610b495760405162461bcd60e51b815260040161043990611c8c565b6001600160a01b038216610b6f5760405162461bcd60e51b815260040161043990611cc3565b60008111610b8f5760405162461bcd60e51b815260040161043990611cea565b6001600160a01b038216600090815260026020526040902054811115610bf05760405162461bcd60e51b8152602060048201526016602482015275496e73756666696369656e74206c697175696469747960501b6044820152606401610439565b6001600160a01b03821660009081526002602052604081208054839290610c18908490611dbd565b90915550506000805460405163a9059cbb60e01b81526001600160a01b039182166004820152602481018490529084169063a9059cbb906044016020604051808303816000875af1158015610c71573d6000803e3d6000fd5b505050506040513d601f19601f82011682018060405250810190610c959190611d16565b9050806109b05760405162461bcd60e51b815260206004820152600f60248201526e151c985b9cd9995c8819985a5b1959608a1b6044820152606401610439565b6000546001600160a01b03163314610d005760405162461bcd60e51b815260040161043990611c8c565b6001600160a01b03811660009081526005602052604090205480610d5b5760405162461bcd60e51b8152602060048201526012602482015271139bc81999595cc81d1bc818dbdb1b1958dd60721b6044820152606401610439565b6001600160a01b038281166000818152600560205260408082208290558154905163a9059cbb60e01b815293166004840152602483018490529163a9059cbb906044016020604051808303816000875af1158015610dbd573d6000803e3d6000fd5b505050506040513d601f19601f82011682018060405250810190610de19190611d16565b905080610e285760405162461bcd60e51b81526020600482015260156024820152741199594818dbdb1b1958dd1a5bdb8819985a5b1959605a1b6044820152606401610439565b7f2e4fb6077d4acf86e12bb7411fb82b2b3eaa6a49787f4b1e17b423e7ea8411698383426040516105e193929190611d5c565b60075460ff1615610ea35760405162461bcd60e51b815260206004820152601260248201527110dbdb9d1c9858dd081a5cc81c185d5cd95960721b6044820152606401610439565b6001600160a01b038316610eed5760405162461bcd60e51b8152602060048201526011602482015270125b9d985b1a59081c9958da5c1a595b9d607a1b6044820152606401610439565b60008211610f0d5760405162461bcd60e51b815260040161043990611cea565b6000855111610f535760405162461bcd60e51b8152602060048201526012602482015271456d7074792066726f6d20636f756e74727960701b6044820152606401610439565b6000845111610f975760405162461bcd60e51b815260206004820152601060248201526f456d70747920746f20636f756e74727960801b6044820152606401610439565b6000600186604051610fa99190611da1565b908152604051908190036020018120546001600160a01b03169150600090600190610fd5908890611da1565b908152604051908190036020019020546001600160a01b03908116915082166110405760405162461bcd60e51b815260206004820152601b60248201527f556e737570706f727465642073656e6465722063757272656e637900000000006044820152606401610439565b6001600160a01b0381166110965760405162461bcd60e51b815260206004820152601e60248201527f556e737570706f7274656420726563697069656e742063757272656e637900006044820152606401610439565b6040516370a0823160e01b815233600482015284906001600160a01b038416906370a0823190602401602060405180830381865afa1580156110dc573d6000803e3d6000fd5b505050506040513d601f19601f820116820180604052508101906111009190611e2a565b10156111455760405162461bcd60e51b8152602060048201526014602482015273496e73756666696369656e742062616c616e636560601b6044820152606401610439565b6040516323b872dd60e01b8152336004820152306024820152604481018590526000906001600160a01b038416906323b872dd906064016020604051808303816000875af115801561119b573d6000803e3d6000fd5b505050506040513d601f19601f820116820180604052508101906111bf9190611d16565b9050806112065760405162461bcd60e51b8152602060048201526015602482015274151bdad95b881d1c985b9cd9995c8819985a5b1959605a1b6044820152606401610439565b6000806001600160a01b038085169086160361122457869150611551565b6001600160a01b038086166000908152600360209081526040808320938816835292905220548061128f5760405162461bcd60e51b8152602060048201526015602482015274115e18da185b99d9481c985d19481b9bdd081cd95d605a1b6044820152606401610439565b612710600454896112a09190611e43565b6112aa9190611e5a565b915060006112b8838a611dbd565b90506000876001600160a01b031663313ce5676040518163ffffffff1660e01b8152600401602060405180830381865afa1580156112fa573d6000803e3d6000fd5b505050506040513d601f19601f8201168201806040525081019061131e9190611e7c565b90506000876001600160a01b031663313ce5676040518163ffffffff1660e01b8152600401602060405180830381865afa158015611360573d6000803e3d6000fd5b505050506040513d601f19601f820116820180604052508101906113849190611e7c565b90508160ff168160ff16106113d657670de0b6b3a76400006113a68383611e9f565b6113b190600a611f9c565b6113bb8686611e43565b6113c59190611e43565b6113cf9190611e5a565b9550611414565b6113e08183611e9f565b6113eb90600a611f9c565b6113fd90670de0b6b3a7640000611e43565b6114078585611e43565b6114119190611e5a565b95505b600086116114645760405162461bcd60e51b815260206004820152601a60248201527f436f6e76657274656420616d6f756e7420746f6f20736d616c6c0000000000006044820152606401610439565b6001600160a01b0388166000908152600260205260409020548611156114c55760405162461bcd60e51b8152602060048201526016602482015275496e73756666696369656e74206c697175696469747960501b6044820152606401610439565b6001600160a01b038916600090815260026020526040812080548592906114ed908490611d49565b90915550506001600160a01b0388166000908152600260205260408120805488929061151a908490611dbd565b90915550506001600160a01b03891660009081526005602052604081208054879290611547908490611d49565b9091555050505050505b6001600160a01b03808916600090815260066020908152604080832093881683529290529081208054849290611588908490611d49565b90915550506040516001600160a01b0389169033907f1e2e2ff22fa6f4aecbaa33e91502a657d27753eb4b9fd78da4c5c0c08641c4b4906115d6908e908e908d90899089908f904290611fab565b60405180910390a350505050505050505050565b60075460ff16156116325760405162461bcd60e51b815260206004820152601260248201527110dbdb9d1c9858dd081a5cc81c185d5cd95960721b6044820152606401610439565b6001600160a01b0382166116585760405162461bcd60e51b815260040161043990611cc3565b600081116116785760405162461bcd60e51b815260040161043990611cea565b3360009081526006602090815260408083206001600160a01b0386168452909152902054818110156116ec5760405162461bcd60e51b815260206004820152601c60248201527f496e73756666696369656e742070656e64696e672062616c616e6365000000006044820152606401610439565b3360009081526006602090815260408083206001600160a01b03871684529091528120805484929061171f908490611dbd565b909155505060405163a9059cbb60e01b8152336004820152602481018390526000906001600160a01b0385169063a9059cbb906044016020604051808303816000875af1158015611774573d6000803e3d6000fd5b505050506040513d601f19601f820116820180604052508101906117989190611d16565b9050806117db5760405162461bcd60e51b815260206004820152601160248201527015da5d1a191c985dd85b0819985a5b1959607a1b6044820152606401610439565b336001600160a01b03167f6010a93c61cd5897b39382362a2a3427a3dba32fc7b43387b88b655a9670fd5f85854260405161181893929190611d5c565b60405180910390a250505050565b6000546001600160a01b031633146118505760405162461bcd60e51b815260040161043990611c8c565b6103e881111561189b5760405162461bcd60e51b815260206004820152601660248201527546656520746f6f206869676820286d6178203130252960501b6044820152606401610439565b6004805490829055604080518281526020810184905242918101919091527f73b44e75de5358b5a4a96a4b4b0495aa6db6280393794fb8d3bc4b488455c47690606001610b13565b6000546001600160a01b0316331461190d5760405162461bcd60e51b815260040161043990611c8c565b6001600160a01b0381166119535760405162461bcd60e51b815260206004820152600d60248201526c24b73b30b634b21037bbb732b960991b6044820152606401610439565b6000546001600160a01b03908116908216036119a15760405162461bcd60e51b815260206004820152600d60248201526c20b63932b0b23c9037bbb732b960991b6044820152606401610439565b600080546001600160a01b0319166001600160a01b0392909216919091179055565b80356001600160a01b03811681146119da57600080fd5b919050565b6000602082840312156119f157600080fd5b6119fa826119c3565b9392505050565b8015158114611a0f57600080fd5b50565b600060208284031215611a2457600080fd5b81356119fa81611a01565b60008060408385031215611a4257600080fd5b611a4b836119c3565b9150611a59602084016119c3565b90509250929050565b60008060408385031215611a7557600080fd5b611a7e836119c3565b946020939093013593505050565b600080600060608486031215611aa157600080fd5b611aaa846119c3565b9250611ab8602085016119c3565b9150604084013590509250925092565b634e487b7160e01b600052604160045260246000fd5b600082601f830112611aef57600080fd5b813567ffffffffffffffff80821115611b0a57611b0a611ac8565b604051601f8301601f19908116603f01168101908282118183101715611b3257611b32611ac8565b81604052838152866020858801011115611b4b57600080fd5b836020870160208301376000602085830101528094505050505092915050565b600060208284031215611b7d57600080fd5b813567ffffffffffffffff811115611b9457600080fd5b611ba084828501611ade565b949350505050565b60008060408385031215611bbb57600080fd5b823567ffffffffffffffff811115611bd257600080fd5b611bde85828601611ade565b925050611a59602084016119c3565b600080600080600060a08688031215611c0557600080fd5b853567ffffffffffffffff80821115611c1d57600080fd5b611c2989838a01611ade565b96506020880135915080821115611c3f57600080fd5b50611c4c88828901611ade565b945050611c5b604087016119c3565b94979396509394606081013594506080013592915050565b600060208284031215611c8557600080fd5b5035919050565b60208082526018908201527f4f6e6c79206f776e65722063616e2063616c6c20746869730000000000000000604082015260600190565b6020808252600d908201526c24b73b30b634b2103a37b5b2b760991b604082015260600190565b6020808252601290820152710416d6f756e74206d757374206265203e20360741b604082015260600190565b600060208284031215611d2857600080fd5b81516119fa81611a01565b634e487b7160e01b600052601160045260246000fd5b8082018082111561061557610615611d33565b6001600160a01b039390931683526020830191909152604082015260600190565b60005b83811015611d98578181015183820152602001611d80565b50506000910152565b60008251611db3818460208701611d7d565b9190910192915050565b8181038181111561061557610615611d33565b60008151808452611de8816020860160208601611d7d565b601f01601f19169290920160200192915050565b606081526000611e0f6060830186611dd0565b6001600160a01b039490941660208301525060400152919050565b600060208284031215611e3c57600080fd5b5051919050565b808202811582820484141761061557610615611d33565b600082611e7757634e487b7160e01b600052601260045260246000fd5b500490565b600060208284031215611e8e57600080fd5b815160ff811681146119fa57600080fd5b60ff828116828216039081111561061557610615611d33565b600181815b80851115611ef3578160001904821115611ed957611ed9611d33565b80851615611ee657918102915b93841c9390800290611ebd565b509250929050565b600082611f0a57506001610615565b81611f1757506000610615565b8160018114611f2d5760028114611f3757611f53565b6001915050610615565b60ff841115611f4857611f48611d33565b50506001821b610615565b5060208310610133831016604e8410600b8410161715611f76575081810a610615565b611f808383611eb8565b8060001904821115611f9457611f94611d33565b029392505050565b60006119fa60ff841683611efb565b60e081526000611fbe60e083018a611dd0565b8281036020840152611fd0818a611dd0565b604084019890985250506060810194909452608084019290925260a083015260c0909101529291505056fea264697066735822122088dc7a4672cfec5b97b8e66293f5d0c1f9976b40de4c129d0e7780b2585fa71a64736f6c63430008140033",
  "linkReferences": {},
  "deployedLinkReferences": {}
}